:020000040800F2
:100000002849002099010008170200080F02000883
:100010001302000809020008750300080000000030
:10002000000000000000000000000000AB0100081C
:100030000D02000800000000450100080D0B00083B
:10004000B3010008B3010008B3010008B3010008C0
:10005000B3010008B3010008B3010008B3010008B0
:10006000B3010008B3010008B3010008B3010008A0
:10007000B3010008B3010008B3010008B301000890
:10008000B3010008B3010008B3010008B301000880
:10009000B3010008B3010008B3010008B301000870
:1000A000B3010008B3010008B3010008B301000860
:1000B000B3010008B3010008B3010008B301000850
:1000C000B3010008B3010008B3010008B301000840
:1000D000B3010008B3010008B3010008B301000830
:1000E000B3010008B3010008B3010008DFF80CD029
:1000F00000F064F8004800479903000828490020F0
:10010000224B19680868B0E8F00F80F30988BFF344
:100110006F8F4FF0000080F311884EF00D0E704786
:100120000000000006480068006880F3088862B696
:1001300061B6BFF34F8FBFF36F8F00DF00BF00BF0B
:1001400008ED00E0EFF30980BFF36F8F0F4B1A68E3
:1001500020E9F00F106008B54FF0BF0080F3118860
:10016000BFF34F8FBFF36F8F00F086FC4FF000009E
:1001700080F31188BDE8084019680868B0E8F00FFE
:1001800080F30988BFF36F8F704700BF0400002021
:10019000EFF3058070470000064880470648004797
:1001A000FEE7FEE7FEE7FEE7FEE7FEE7FEE7FEE727
:1001B000FEE7FEE715030008ED000008064C074DBA
:1001C00006E0E06840F0010394E807009847103427
:1001D000AC42F6D3FFF78EFFA40D0008C40D000853
:1001E00010B5012400F056FB0348006800F0A4FBA2
:1001F00000F062FB10BD00000000002010B54FF4BD
:10020000407000F009F810BD00BFFEE7704700BF66
:10021000FEE700BFFEE7704702490143024A116052
:10022000704700000000FA050CED00E010B500F08A
:1002300001F810BD0CB50020019000903348006813
:1002400040F480303149086000BF3048006800F455
:10025000003000900198401C0190009818B9019856
:10026000B0F5A06FF1D12948006800F4003010B15A
:100270000120009001E0002000900098012843D167
:100280002348006840F010002149086008460068D3
:1002900020F0030008600846006840F00200086093
:1002A0001A4840681949486008464068486008464E
:1002B000406840F4806048600846406820F47C1044
:1002C00048600846406840F4E81048600846006806
:1002D00040F08070086000BF0C48006800F00070BB
:1002E0000028F9D00948406820F003000749486019
:1002F0000846406840F00200486000BF034840687C
:1003000000F00C000828F9D10CBD000000100240DC
:100310000020024010B51348006840F00100114968
:10032000086008464068104908400E494860084681
:1003300000680E4908400B4908600846006820F430
:10034000802008600846406820F4FE0048604FF4B2
:100350001F008860FFF76AFF4FF0006004490860E3
:1003600010BD0000001002400000FFF8FFFFF6FE85
:1003700008ED00E000BFFEE702E008C8121F08C158
:10038000002AFAD170477047002001E001C1121F16
:10039000002AFBD1704700001CB50124FFF72EFF97
:1003A0000A48012100238022CDE9001008A10C4851
:1003B00000F0C6FB0446012C02D100F023FB02E052
:1003C0004FF0FF301CBD00BFFEE700000000002022
:1003D000417070205461736B4372656174650000F5
:1003E000E101000810B5044600F054FA2348006803
:1003F000401C224908602248006840B92048046037
:100400000846006801280DD100F00CF90AE01D48EB
:10041000006838B91A480068C06AE16A884201D8A1
:100420001748046018480068401C1749086094F891
:100430002C100120884015490968084313490860B9
:10044000E16A01EB8101124A02EB8100211D00F0FB
:1004500015FA00F031FA0B48006868B108480068E6
:10046000C06AE16A884207D24FF0805009490860AB
:10047000BFF34F8FBFF36F8F10BD0000140000203B
:100480000400002020000020300000201C0000207C
:100490005C00002004ED00E010B516E000F0FAF971
:1004A0000C48C068C468201D00F0C4F90A48006800
:1004B000401E0949086009480068401E0749086055
:1004C00000F0FAF9204600F00BF804480068002814
:1004D000E4D110BDFC00002014000020100000201A
:1004E00010B50446206B00F0F7F9204600F0F4F94F
:1004F00010BD000030B54FF48843174800F00704E2
:100500002CB1C01D20F00700134C041B1B1B02461E
:10051000124C22600024114D6C60D018083820F075
:1005200007000F4C206000240D4D2D686C600C4DB1
:100530002D682C601146441A4C60094C24680C60EC
:10054000084D4C682C60084D4C682C604FF00044FE
:10055000064D2C6030BD0000240100204400002026
:100560004C000020540000205000002058000020C3
:1005700000BFFFF791FF064800680128F9D94FF046
:10058000805004490860BFF34F8FBFF36F8FF0E7CF
:100590005C00002004ED00E02DE9FF5F80460E4680
:1005A0009146DDE90E7A109CA9F10100216B01EB67
:1005B000800B2BF0070B86B1002507E0715D04F17D
:1005C00034004155705D00B902E06D1C102DF5D36B
:1005D00000BF00214320015502E0002084F83400D0
:1005E000052F00D30427E762201D00F044F904F131
:1005F000180000F040F92461C7F10500A0616462B1
:100600000020606484F8480041465846039A00F090
:10061000FFF82060BAF1000F01D0CAF80040BDE831
:10062000FF9F000010B5002407E004EB84010F4A8F
:1006300002EB810000F012F9641C052CF5D30C4884
:1006400000F00CF90B4800F009F90B4800F006F92E
:100650000A4800F003F90A4800F000F90448094983
:10066000086004480849086010BD00005C000020D4
:10067000C0000020D4000020E8000020FC00002082
:1006800010010020080000200C00002010B50146D9
:10069000164800E0006803688B42FBD302464368BB
:1006A00013448B4204D143684C68234443600146A1
:1006B0000A464B6813440468A34211D10C4C0368EA
:1006C0002468A34208D04B680468646823444B60E4
:1006D00003681B680B6005E0054B1B680B6001E0BD
:1006E00003680B60884200D0016010BD4400002008
:1006F0004C0000200A490968096809B9012100E095
:10070000002121B14FF0FF31064A116006E0044993
:100710000968C968C868034A4168116070470000E9
:10072000080000203400002000BFBF2080F31188A3
:10073000BFF34F8FBFF36F8F00BF00BFFEE7000016
:100740002DE9F04105464FF0000800F08DF92B48E7
:10075000006808B9FFF7CEFE294800682840002845
:1007600047D145B1083505F0070020B105F0070075
:10077000C0F108000544002D3BD0224800688542A6
:1007800037D8214E3046046801E026462468606868
:10079000A84202D220680028F7D118480068844295
:1007A00027D0306800F10808206830606068401B7E
:1007B000102807D967196068401B78606560384663
:1007C000FFF764FF0F4960680968081A0D4908605F
:1007D000084600680D490968884203D20948006844
:1007E0000A4908600649606809680843606000209B
:1007F000206000F063FA4046BDE8F0814C00002024
:100800005800002050000020440000205400002028
:10081000001F4FF080730360001F21F0010303608D
:10082000001F034B0360143802602038704700003B
:100830002907000801460A69D1E901309860D1E929
:10084000010358605068884201D1886850600020D8
:1008500008611068401E10601068704700F10801C0
:1008600041604FF0FF31816000F10801C16001611A
:1008700000210160704700210161704742684A60B1
:1008800093688B60936859609160086103685B1C92
:100890000360704700BFBF2080F31188BFF34F8F04
:1008A000BFF36F8F00BF03480068401C0149086018
:1008B000704700004000002006480068401E0549BF
:1008C00008600846006820B9002080F3118800BF46
:1008D00000BF70474000002070B506463546D6B1CF
:1008E000083D2C460C4960680968084098B12068AA
:1008F00088B90949606809688843606000F0B4F805
:100900000649606809680844044908602046FFF702
:10091000BDFE00F0D3F970BD58000020500000204B
:1009200000204FF0E02108618861024848610720FB
:10093000086170473F19010070B50546FFF7AAFF2F
:1009400015B92748006800E028460446201DFFF737
:1009500071FF78B9E06A00EB8000224951F820006D
:1009600040B994F82C10012088401F490968814340
:100970001D480160A06A18B104F11800FFF75AFF82
:100980001A480068401C19490860154800688442EC
:1009900009D1211D1648FFF771FF16480068401C59
:1009A0001449086009E014480068401E12490860B4
:1009B0002046FFF795FDFFF79DFEFFF77DFF0F48EF
:1009C000006858B106480068844207D14FF0805053
:1009D0000B490860BFF34F8FBFF36F8F70BD0000EE
:1009E000040000205C0000201C00002030000020DB
:1009F000FC00002010000020140000202000002037
:100A000004ED00E01CB5114800210B468022CDE921
:100A100000100FA1104800F093F80446012C14D1E7
:100A200000BFBF2080F31188BFF34F8FBFF36F8FDC
:100A300000BF4FF0FF3009490860012008490860F5
:100A400000200849086000F047F81CBD380000206D
:100A500049444C45000000007105000834000020A6
:100A6000200000201800002002480068401C0149B6
:100A7000086070473C0000201248006818B101204F
:100A8000114908601DE000200F4908600F48006808
:100A9000B0FA80F0C0F11F0101EB81020C4B03EBB7
:100AA000820042685268426000F108024368934243
:100AB00002D14268526842604268D268054B1A60AF
:100AC00000BF70473C000020280000201C000020D0
:100AD0005C0000200400002010B50A48006840F4C3
:100AE0007F00084908600846006840F07F400860C1
:100AF000FFF716FF002004490860FFF713FB0020F2
:100B000010BD000020ED00E04000002010B500BF47
:100B1000BF2080F31188BFF34F8FBFF36F8F00BFEB
:100B200000F03EF818B14FF080500449086000BF53
:100B3000002080F3118800BF10BD000004ED00E02C
:100B40002DE9FF4F85B0804689461746DDE912AB97
:100B5000B800FFF7F5FD064656B14C20FFF7F0FD53
:100B600004460CB1266304E03046FFF7B5FE00E012
:100B700000247CB10020CDE900ABCDE902403A462B
:100B800049464046089BFFF707FD2046FFF72AFC31
:100B9000012501E04FF0FF35284609B0BDE8F08F90
:100BA0002DE9F04100273A480068002863D1394810
:100BB0000068451C374805608DB93748D0F800807B
:100BC00036480068344908603448C0F8008034482A
:100BD0000068401C32490860FFF78CFD00BF3148B7
:100BE000006885423BD300BF2B480068006808B905
:100BF000012000E0002020B14FF0FF3029490860BB
:100C00002CE025480068C068C4686668B54202D216
:100C10002448066022E0201DFFF70CFEA06A18B1F0
:100C200004F11800FFF706FE94F82C10012088400C
:100C30001D49096808431C490860E16A01EB81010C
:100C40001A4A02EB8100211DFFF718FE1849E06ADD
:100C50000968C96A8842C7D30127C5E700BF14489D
:100C60000068C06A00EB8000104951F8200001289C
:100C700000D9012704E00F480068401C0D490860B6
:100C80000D48006800B101273846BDE8F08100003A
:100C90003C00002018000020080000200C0000206C
:100CA0002C000020340000201C0000205C000020EC
:100CB00004000020240000202800002070B500243B
:100CC0000026FFF7E7FD2E480068401E2C4908600B
:100CD0000846006800284FD12A48006800284BD0F9
:100CE00024E02948C068C46804F11800FFF7A2FD99
:100CF000201DFFF79FFD94F82C1001208840234908
:100D00000968084321490860E16A01EB8101204A32
:100D100002EB8100211DFFF7B1FD1E49E06A096861
:100D2000C96A884202D301201B490860164800683E
:100D300008B9012000E000200028D2D00CB1FFF754
:100D4000D9FC1648056865B100BFFFF729FF10B14F
:100D50000120114908606D1E002DF6D100200F49B9
:100D600008600D48006838B1012630070C4908605A
:100D7000BFF34F8FBFF36F8FFFF79EFD304670BDFF
:100D80003C00002014000020E80000201C0000208F
:100D90005C00002004000020280000202400002027
:100DA00004ED00E0C40D0008000000205C0000001D
:100DB00078030008200E00085C000020CC480000EA
:100DC0008803000800000000000000000000000090
:100DD0000000000000000000000000000000000013
:100DE0000000000000000000000000000000000003
:100DF00000000000000000000000000000000000F3
:100E000000000000AAAAAAAA00000000000000003A
:100E100000000000000000000000000000000000D2
:04000005080000ED02
:00000001FF
